:1000000071C00000BDC00000D9C000008AC000005F
:1000100088C0000086C0000084C0000082C00000CC
:1000200080C000007EC000007CC000007AC00000DC
:1000300078C0000076C0000074C0000072C00000EC
:1000400070C000006EC000006CC000006AC00000FC
:1000500068C00000F4C0000064C0000062C000007E
:1000600060C000005EC000005CC000005AC000001C
:1000700058C0000056C0000054C0000052C000002C
:1000800050C000004EC000004CC000004AC000003C
:1000900048C0000046C0000044C0000042C000004C
:1000A00040C000003EC000003CC000003AC000005C
:1000B00038C0000036C0000034C0000032C000006C
:1000C00030C000002EC000002CC000002AC000007C
:1000D00028C0000026C0000024C0000022C000008C
:1000E00020C0000011241FBECFEFD1E2DEBFCDBF84
:1000F00000E00CBF12E0A0E0B2E0EEECF4E000E0C3
:100100000BBF02C007900D92A030B107D9F722E0D3
:10011000A0E0B2E001C01D92A930B207E1F717D00C
:10012000D4C16ECF82E884BD82E080936E0080E807
:1001300087BD089580EE81B98AB18D7F8AB98FEF2E
:1001400087B98FE08093690083E08DBB0895F2DF6B
:10015000E9DF789480910802833049F080910402AD
:1001600090910502A0910602B0910702F3CF809111
:10017000000290910102A0910202B0910302EACF25
:100180001F920F920FB60F9211248F938091080245
:10019000811105C081E08093080285BD09C080916E
:1001A0000802813029F482E08093080285B515BCED
:1001B0008F910F900FBE0F901F9018951F920F9266
:1001C0000FB60F9211248F939F93AF93BF9380919B
:1001D0000802823061F41092080216BC10920402E8
:1001E0001092050210920602109207021FC0809121
:1001F00008028130A1F483E0809308028091040218
:1002000090910502A0910602B0910702809300022E
:1002100090930102A0930202B093030207C0809161
:100220000802833019F481E080930802BF91AF91F6
:100230009F918F910F900FBE0F901F9018951F9256
:100240000F920FB60F9211240BB60F922F933F937C
:100250004F935F936F937F938F939F93AF93BF93CE
:10026000EF93FF9360910402709105028091060262
:10027000909107022DEC3CEC4CEC5DE349D060938F
:1002800004027093050280930602909307022FEFF9
:1002900081EE94E0215080409040E1F700C00000E2
:1002A000609104027091050280910602909107020C
:1002B00020E030E040E752E4E0D08823ACF06091E9
:1002C000040270910502809106029091070220E0DD
:1002D00030E040E752E41BD06093040270930502C3
:1002E0008093060290930702FF91EF91BF91AF9127
:1002F0009F918F917F916F915F914F913F912F913E
:100300000F900BBE0F900FBE0F901F901895505876
:10031000BB27AA270ED077C068D030F06DD020F070
:1003200031F49F3F11F41EF45DC00EF4E095E7FB3D
:1003300053C0E92F79D080F3BA1762077307840797
:10034000950718F071F49EF591C00EF4E0950B2E10
:10035000BA2FA02D0B01B90190010C01CA01A00117
:100360001124FF27591B99F0593F50F4503E68F172
:100370001A16F040A22F232F342F4427585FF3CFB3
:10038000469537952795A795F0405395C9F77EF484
:100390001F16BA0B620B730B840BBAF09150A1F0CD
:1003A000FF0FBB1F661F771F881FC2F70EC0BA0F53
:1003B000621F731F841F48F4879577956795B795DB
:1003C000F7959E3F08F0B3CF9395880F08F09927D3
:1003D000EE0F97958795089597F99F6780E870E0ED
:1003E00060E008959FEF80EC089500240A941616AB
:1003F000170618060906089500240A941216130613
:10040000140605060895092E0394000C11F48823A0
:1004100052F0BB0F40F4BF2B11F460FF04C06F5FBC
:100420007F4F8F4F9F4F089557FD9058440F551F92
:1004300059F05F3F71F04795880F97FB991F61F066
:100440009F3F79F087950895121613061406551FDD
:10045000F2CF4695F1DF08C0161617061806991F49
:10046000F1CF86957105610508940895E894BB273E
:1004700066277727CB0197F9089503D008F48FEF0B
:100480000895990F0008550FAA0BE0E8FEEF161625
:100490001706E807F907C0F012161306E407F50778
:1004A00098F0621B730B840B950B39F40A2661F0EC
:1004B000232B242B252B21F408950A2609F4A1408F
:0E04C000A6958FEF811D811D0895F894FFCF42
:00000001FF
