S00A000050342E7372656396
S113000071C0000064C1000081C100008AC000000A
S113001088C0000086C0000084C0000082C00000C8
S113002080C000007EC000007CC000007AC00000D8
S113003078C0000076C0000074C0000072C00000E8
S113004070C000006EC000006CC000006AC00000F8
S113005068C000009CC1000064C0000062C00000D1
S113006060C000005EC000005CC000005AC0000018
S113007058C0000056C0000054C0000052C0000028
S113008050C000004EC000004CC000004AC0000038
S113009048C0000046C0000044C0000042C0000048
S11300A040C000003EC000003CC000003AC0000058
S11300B038C0000036C0000034C0000032C0000068
S11300C030C000002EC000002CC000002AC0000078
S11300D028C0000026C0000024C0000022C0000088
S11300E020C0000011241FBECFEFD1E2DEBFCDBF80
S11300F000E00CBF12E0A0E0B2E0E0E3F8E000E0D2
S11301000BBF02C007900D92AC30B107D9F722E0C3
S1130110ACE0B2E001C01D92A531B207E1F790D086
S113012085C36ECF82E884BD82E080936E0080E850
S113013087BD089580EE81B98AB18D7F8AB98FEF2A
S113014087B98FE08093690083E08DBB0895CF92D7
S1130150DF92EF92FF92CF93DF936B017C0121D268
S1130160D62F20E030E040E251E4C701B601B1D11E
S113017018D2C62F6D2F70E080E090E040D29B0132
S1130180AC01C701B60140D120E030E040E251E4C7
S1130190C6D207D2D62F8C2F90E0BC01660F771FF2
S11301A0880F991F880F991F880F991F680F791F4F
S11301B0072E000C880B990B22D29B01AC01C701BE
S11301C0B60122D1EED18FE782B9E0910002F0911D
S11301D00102ED0FF11D80818F7788B98FE99FE0CF
S11301E00197F1F700C0000018B88FEB82B9E091D5
S11301F00002F0910102E60FF11D808188B98FE9B8
S11302009FE00197F1F700C00000CC2391F018B8EB
S11302108FED82B9E0910002F0910102EC0FF11D23
S113022080818F7788B98FE99FE00197F1F700C04B
S11302300000DF91CF91FF90EF90DF90CF90089571
S113024079DF70DF7894809114022091140291E098
S1130250813009F090E081E0233009F080E0892BBF
S113026091F36091100270911102809112029091A9
S113027013022DEC3CEC4CEC5DE3C7D06093100210
S11302807093110280931202909313022FEF81EE68
S113029094E0215080409040E1F700C0000060915C
S11302A0100270911102809112029091130220E0C9
S11302B030E040E752E42FD288232CF2109210024F
S11302C0109211021092120210921302BCCF1F92CC
S11302D00F920FB60F9211248F9380911402811103
S11302E006C081E08093140285E085BD09C0809139
S11302F01402813029F482E08093140285B515BC80
S11303008F910F900FBE0F901F9018951F920F9210
S11303100FB60F9211248F939F93AF93BF93809145
S11303201402823061F41092140216BC109210026E
S11303301092110210921202109213021FC08091A7
S113034014028130A1F483E080931402809110029E
S113035090911102A0911202B091130280930C02A9
S113036090930D02A0930E02B0930F0207C08091E8
S11303701402833019F481E080931402BF91AF9189
S11303809F918F910F900FBE0F901F9018951F9201
S11303900F920FB60F9211240BB60F922F933F9327
S11303A04F935F936F937F938F939F93AF93BF9379
S11303B0EF93FF9380911402833051F06091100207
S11303C0709111028091120290911302C0DE09C053
S11303D060910C0270910D0280910E0290910F02B7
S11303E0B6DEFF91EF91BF91AF919F918F917F9175
S11303F06F915F914F913F912F910F900BBE0F9092
S11304000FBE0F901F9018955058BB27AA270ED0E7
S113041048C139D130F03ED120F031F49F3F11F47E
S11304201EF42EC10EF4E095E7FB24C1E92F4AD156
S113043080F3BA17620773078407950718F071F4FD
S11304409EF562C10EF4E0950B2EBA2FA02D0B0180
S1130450B90190010C01CA01A0011124FF27591B05
S113046099F0593F50F4503E68F11A16F040A22F0B
S1130470232F342F4427585FF3CF4695379527957C
S1130480A795F0405395C9F77EF41F16BA0B620B7B
S1130490730B840BBAF09150A1F0FF0FBB1F661FC2
S11304A0771F881FC2F70EC0BA0F621F731F841F05
S11304B048F4879577956795B795F7959E3F08F02B
S11304C0B3CF9395880F08F09927EE0F97958795EA
S11304D008950CD0E6C0DED040F0D5D030F021F441
S11304E05F3F19F0C7C0511110C1CAC0EBD098F3D7
S11304F09923C9F35523B1F3951B550BBB27AA27A1
S113050062177307840738F09F5F5F4F220F331F12
S1130510441FAA1FA9F333D00E2E3AF0E0E830D0DE
S113052091505040E695001CCAF729D0FE2F27D0E1
S1130530660F771F881FBB1F261737074807AB07AF
S1130540B0E809F0BB0B802DBF01FF2793585F4F24
S11305502AF09E3F510568F08DC0D7C05F3FECF391
S1130560983EDCF3869577956795B795F7959F5FE9
S1130570C9F7880F911D9695879597F90895E1E03D
S1130580660F771F881FBB1F621773078407BA079C
S113059020F0621B730B840BBA0BEE1F88F7E095F7
S11305A0089598D088F09F5790F0B92F9927B751A4
S11305B0A0F0D1F0660F771F881F991F1AF0BA9523
S11305C0C9F712C0B13081F09FD0B1E008959CC04A
S11305D0672F782F8827B85F39F0B93FCCF3869519
S11305E077956795B395D9F73EF490958095709576
S11305F061957F4F8F4F9F4F0895E89409C097FBF3
S11306003EF490958095709561957F4F8F4F9F4FE5
S11306109923A9F0F92F96E9BB279395F695879529
S113062077956795B795F111F8CFFAF4BB0F11F4EC
S113063060FF1BC06F5F7F4F8F4F9F4F16C0882393
S113064011F096E911C0772321F09EE8872F762FC9
S113065005C0662371F096E8862F70E060E02AF00A
S11306609A95660F771F881FDAF7880F96958795F6
S113067097F9089597F99F6780E870E060E008951E
S11306809FEF80EC089500240A94161617061806A6
S11306900906089500240A94121613061406050682
S11306A00895092E0394000C11F4882352F0BB0F13
S11306B040F4BF2B11F460FF04C06F5F7F4F8F4F76
S11306C09F4F089557FD9058440F551F59F05F3FB1
S11306D071F04795880F97FB991F61F09F3F79F060
S11306E087950895121613061406551FF2CF4695E2
S11306F0F1DF08C0161617061806991FF1CF869564
S11307007105610508940895E894BB276627772747
S1130710CB0197F9089566D008F48FEF08950BD0B4
S1130720C0CFB1DF28F0B6DF18F0952309F0A2CFCF
S1130730A7CF1124EACFC6DFA0F3959FD1F3950F7D
S113074050E0551F629FF001729FBB27F00DB11D51
S1130750639FAA27F00DB11DAA1F649F6627B00DE1
S1130760A11D661F829F2227B00DA11D621F739FCA
S1130770B00DA11D621F839FA00D611D221F749FD8
S11307803327A00D611D231F849F600D211D822F1F
S1130790762F6A2F11249F5750408AF0E1F0882366
S11307A04AF0EE0FFF1FBB1F661F771F881F915073
S11307B05040A9F79E3F510570F05CCFA6CF5F3F34
S11307C0ECF3983EDCF3869577956795B795F795A6
S11307D0E7959F5FC1F7FE2B880F911D969587952E
S11307E097F90895990F0008550FAA0BE0E8FEEF5A
S11307F016161706E807F907C0F012161306E407E1
S1130800F50798F0621B730B840B950B39F40A26D9
S113081061F0232B242B252B21F408950A2609F4B7
S1130820A140A6958FEF811D811D0895F894FFCFF7
S10F08300202FEB0EDF9B3DBDFF0FFF3D1
S9030000FC
